{
  "transactions": [
    {
      "hash": "0x67debf237ecf15fcfb268921dd363671b6a86610ae7a968053ba65191e9236e3",
      "transactionType": "CREATE",
      "contractName": "Profiles",
      "contractAddress": "0x5fbdb2315678afecb367f032d93f642f64180aa3",
      "function": null,
      "arguments": [
        "0x0000000000000000000000000000000000001234",
        "0xf39Fd6e51aad88F6F4ce6aB8827279cffFb92266"
      ],
      "transaction": {
        "from": "0xf39fd6e51aad88f6f4ce6ab8827279cfffb92266",
        "gas": "0x3f1f7",
        "value": "0x0",
        "input": "0x60c060405234801561000f575f5ffd5b5060405161035738038061035783398101604081905261002e91610060565b6001600160a01b039182166080521660a052610091565b80516001600160a01b038116811461005b575f5ffd5b919050565b5f5f60408385031215610071575f5ffd5b61007a83610045565b915061008860208401610045565b90509250929050565b60805160a0516102996100be5f395f8181608501528181610106015261017901525f60d901526102995ff3fe608060405234801561000f575f5ffd5b506004361061004a575f3560e01c80630656e6cb1461004e57806338013f0214610080578063636fb7d5146100bf5780638004ac2a146100d4575b5f5ffd5b61006d61005c36600461021b565b5f6020819052908152604090205481565b6040519081526020015b60405180910390f35b6100a77f000000000000000000000000000000000000000000000000000000000000000081565b6040516001600160a01b039091168152602001610077565b6100d26100cd36600461023b565b6100fb565b005b6100a77f000000000000000000000000000000000000000000000000000000000000000081565b336001600160a01b037f000000000000000000000000000000000000000000000000000000000000000016146101775760405162461bcd60e51b815260206004820152601a60248201527f756e617574686f72697a656420636f6e74726163742063616c6c000000000000604482015260640160405180910390fd5b7f00000000000000000000000000000000000000000000000000000000000000006001600160a01b031681836001600160a01b03167fdf3d52f91c217cecdf0f0ca8f90fddeb94f26c26df4dc6d178b4e1e39b0aa134426040516101dd91815260200190565b60405180910390a46001600160a01b039091165f90815260208190526040902055565b80356001600160a01b0381168114610216575f5ffd5b919050565b5f6020828403121561022b575f5ffd5b61023482610200565b9392505050565b5f5f6040838503121561024c575f5ffd5b61025583610200565b94602093909301359350505056fea2646970667358221220264e4110576f0274b5ed0981b2ed9149b3657097ec3d3f75e10bfcde9683560964736f6c634300081e00330000000000000000000000000000000000000000000000000000000000001234000000000000000000000000f39fd6e51aad88f6f4ce6ab8827279cfffb92266",
        "nonce": "0x0",
        "chainId": "0x7a69"
      },
      "additionalContracts": [],
      "isFixedGasLimit": false
    },
    {
      "hash": "0x73fe0a33ba103642670defb9015b51bb6278e5d360a9ba7e274acb22e5840536",
      "transactionType": "CALL",
      "contractName": "Profiles",
      "contractAddress": "0x5fbdb2315678afecb367f032d93f642f64180aa3",
      "function": "addProfile(address,bytes32)",
      "arguments": [
        "0x70997970C51812dc3A010C7d01b50e0d17dc79C8",
        "0x6cf174318a1edbf8248425cc7f8f4c5cc4ab14c90925520a744deef78953d603"
      ],
      "transaction": {
        "from": "0xf39fd6e51aad88f6f4ce6ab8827279cfffb92266",
        "to": "0x5fbdb2315678afecb367f032d93f642f64180aa3",
        "gas": "0x10b25",
        "value": "0x0",
        "input": "0x636fb7d500000000000000000000000070997970c51812dc3a010c7d01b50e0d17dc79c86cf174318a1edbf8248425cc7f8f4c5cc4ab14c90925520a744deef78953d603",
        "nonce": "0x1",
        "chainId": "0x7a69"
      },
      "additionalContracts": [],
      "isFixedGasLimit": false
    },
    {
      "hash": "0xb401cdfc371a5f4d4ce305bc0aacaf4170a5f98b7067c716d1c831ea0085305f",
      "transactionType": "CALL",
      "contractName": "Profiles",
      "contractAddress": "0x5fbdb2315678afecb367f032d93f642f64180aa3",
      "function": "addProfile(address,bytes32)",
      "arguments": [
        "0x3C44CdDdB6a900fa2b585dd299e03d12FA4293BC",
        "0xb25a5a1c7caba59258dbea03242817ea904fd0af6229cb729f1385fcbf07d942"
      ],
      "transaction": {
        "from": "0xf39fd6e51aad88f6f4ce6ab8827279cfffb92266",
        "to": "0x5fbdb2315678afecb367f032d93f642f64180aa3",
        "gas": "0xfc3c",
        "value": "0x0",
        "input": "0x636fb7d50000000000000000000000003c44cdddb6a900fa2b585dd299e03d12fa4293bcb25a5a1c7caba59258dbea03242817ea904fd0af6229cb729f1385fcbf07d942",
        "nonce": "0x2",
        "chainId": "0x7a69"
      },
      "additionalContracts": [],
      "isFixedGasLimit": false
    },
    {
      "hash": "0xbc30ce4f32543d3eb51557f4e8846fef48d1a6e26b179c7a474f4040edd287a5",
      "transactionType": "CALL",
      "contractName": "Profiles",
      "contractAddress": "0x5fbdb2315678afecb367f032d93f642f64180aa3",
      "function": "addProfile(address,bytes32)",
      "arguments": [
        "0x90F79bf6EB2c4f870365E785982E1f101E93b906",
        "0x9498a1d7ce43710ec2c6286af9e143b9e839f10b60ff4103e9499ae3cacc1488"
      ],
      "transaction": {
        "from": "0xf39fd6e51aad88f6f4ce6ab8827279cfffb92266",
        "to": "0x5fbdb2315678afecb367f032d93f642f64180aa3",
        "gas": "0x10b25",
        "value": "0x0",
        "input": "0x636fb7d500000000000000000000000090f79bf6eb2c4f870365e785982e1f101e93b9069498a1d7ce43710ec2c6286af9e143b9e839f10b60ff4103e9499ae3cacc1488",
        "nonce": "0x3",
        "chainId": "0x7a69"
      },
      "additionalContracts": [],
      "isFixedGasLimit": false
    },
    {
      "hash": "0x535888d0854c93400383df667471905acf58ec2a05680c9af1eabf3ce5183ca5",
      "transactionType": "CALL",
      "contractName": "Profiles",
      "contractAddress": "0x5fbdb2315678afecb367f032d93f642f64180aa3",
      "function": "addProfile(address,bytes32)",
      "arguments": [
        "0x15d34AAf54267DB7D7c367839AAf71A00a2C6A65",
        "0x2a423060727a4831dc33916d06b48bcaaa0e914f0dcc984e7591a365b3e5bf12"
      ],
      "transaction": {
        "from": "0xf39fd6e51aad88f6f4ce6ab8827279cfffb92266",
        "to": "0x5fbdb2315678afecb367f032d93f642f64180aa3",
        "gas": "0x10b25",
        "value": "0x0",
        "input": "0x636fb7d500000000000000000000000015d34aaf54267db7d7c367839aaf71a00a2c6a652a423060727a4831dc33916d06b48bcaaa0e914f0dcc984e7591a365b3e5bf12",
        "nonce": "0x4",
        "chainId": "0x7a69"
      },
      "additionalContracts": [],
      "isFixedGasLimit": false
    },
    {
      "hash": "0xadb7257477ecb2b60faa8c61d73f31377786d7a5b42c63cb64a56a25f97e12bb",
      "transactionType": "CALL",
      "contractName": "Profiles",
      "contractAddress": "0x5fbdb2315678afecb367f032d93f642f64180aa3",
      "function": "addProfile(address,bytes32)",
      "arguments": [
        "0x9965507D1a55bcC2695C58ba16FB37d819B0A4dc",
        "0xf7b3690e888f56aab8207ebc26898505bade655f744808634be5e4523dc80816"
      ],
      "transaction": {
        "from": "0xf39fd6e51aad88f6f4ce6ab8827279cfffb92266",
        "to": "0x5fbdb2315678afecb367f032d93f642f64180aa3",
        "gas": "0x10b25",
        "value": "0x0",
        "input": "0x636fb7d50000000000000000000000009965507d1a55bcc2695c58ba16fb37d819b0a4dcf7b3690e888f56aab8207ebc26898505bade655f744808634be5e4523dc80816",
        "nonce": "0x5",
        "chainId": "0x7a69"
      },
      "additionalContracts": [],
      "isFixedGasLimit": false
    }
  ],
  "receipts": [
    {
      "status": "0x1",
      "cumulativeGasUsed": "0x308e6",
      "logs": [],
      "logsBloom": "0x00000000000000000000000000000000000000000000000000000000000000000000000000000000000000000000000000000000000000000000000000000000000000000000000000000000000000000000000000000000000000000000000000000000000000000000000000000000000000000000000000000000000000000000000000000000000000000000000000000000000000000000000000000000000000000000000000000000000000000000000000000000000000000000000000000000000000000000000000000000000000000000000000000000000000000000000000000000000000000000000000000000000000000000000000000000",
      "type": "0x2",
      "transactionHash": "0x67debf237ecf15fcfb268921dd363671b6a86610ae7a968053ba65191e9236e3",
      "transactionIndex": "0x0",
      "blockHash": "0x8d5364cd4feeaf96a55c7948a08c33cb6119bbcd3ce74bc51422696d84c712b5",
      "blockNumber": "0x1",
      "gasUsed": "0x308e6",
      "effectiveGasPrice": "0x3b9aca01",
      "blobGasPrice": "0x1",
      "from": "0xf39fd6e51aad88f6f4ce6ab8827279cfffb92266",
      "to": null,
      "contractAddress": "0x5fbdb2315678afecb367f032d93f642f64180aa3"
    },
    {
      "status": "0x1",
      "cumulativeGasUsed": "0xb6aa",
      "logs": [
        {
          "address": "0x5fbdb2315678afecb367f032d93f642f64180aa3",
          "topics": [
            "0xdf3d52f91c217cecdf0f0ca8f90fddeb94f26c26df4dc6d178b4e1e39b0aa134",
            "0x00000000000000000000000070997970c51812dc3a010c7d01b50e0d17dc79c8",
            "0x6cf174318a1edbf8248425cc7f8f4c5cc4ab14c90925520a744deef78953d603",
            "0x000000000000000000000000f39fd6e51aad88f6f4ce6ab8827279cfffb92266"
          ],
          "data": "0x000000000000000000000000000000000000000000000000000000006a418951",
          "blockHash": "0x26f963d3d797e39bddd6702ffbf008ed2cfea0f8c600af3f64f07f2b22d8c09b",
          "blockNumber": "0x2",
          "blockTimestamp": "0x6a418951",
          "transactionHash": "0x73fe0a33ba103642670defb9015b51bb6278e5d360a9ba7e274acb22e5840536",
          "transactionIndex": "0x0",
          "logIndex": "0x0",
          "removed": false
        }
      ],
      "logsBloom": "0x00000000000000000002000000000000000000000000000000000000000000000000000000000000000000000000000000000000000000000000000000000000000000000000000002000000000000000000000000000000000000000000000000000840000000000000000100000000000000000000000000000000000000000000000400000000000000000000000000000000000000000000000200001000000000000000000000000000000000000000000000000000000000080000000000000040000000200000000000000000000000002000000000001000000000000000000000000008000000000000000001000000000000000000000000000000",
      "type": "0x2",
      "transactionHash": "0x73fe0a33ba103642670defb9015b51bb6278e5d360a9ba7e274acb22e5840536",
      "transactionIndex": "0x0",
      "blockHash": "0x26f963d3d797e39bddd6702ffbf008ed2cfea0f8c600af3f64f07f2b22d8c09b",
      "blockNumber": "0x2",
      "gasUsed": "0xb6aa",
      "effectiveGasPrice": "0x3440bae9",
      "blobGasPrice": "0x1",
      "from": "0xf39fd6e51aad88f6f4ce6ab8827279cfffb92266",
      "to": "0x5fbdb2315678afecb367f032d93f642f64180aa3",
      "contractAddress": null
    },
    {
      "status": "0x1",
      "cumulativeGasUsed": "0xb69e",
      "logs": [
        {
          "address": "0x5fbdb2315678afecb367f032d93f642f64180aa3",
          "topics": [
            "0xdf3d52f91c217cecdf0f0ca8f90fddeb94f26c26df4dc6d178b4e1e39b0aa134",
            "0x0000000000000000000000003c44cdddb6a900fa2b585dd299e03d12fa4293bc",
            "0xb25a5a1c7caba59258dbea03242817ea904fd0af6229cb729f1385fcbf07d942",
            "0x000000000000000000000000f39fd6e51aad88f6f4ce6ab8827279cfffb92266"
          ],
          "data": "0x000000000000000000000000000000000000000000000000000000006a418951",
          "blockHash": "0x0169a2ed9cc5ccf62b106dc62a21cbfd243f43669497a596cfcef111b297c071",
          "blockNumber": "0x3",
          "blockTimestamp": "0x6a418951",
          "transactionHash": "0xb401cdfc371a5f4d4ce305bc0aacaf4170a5f98b7067c716d1c831ea0085305f",
          "transactionIndex": "0x0",
          "logIndex": "0x0",
          "removed": false
        }
      ],
      "logsBloom": "0x00000000000000000000000000000000000000000000000000000000000000000000000000000000000000000000000000000000000000000000000000100000000000000000000002000000000000000000000000000000000000000000000800000040000000000000000100000000000800000000000000000000000000000000000400000000000000000000000000000000000000000000000200000000000000000000200000000000000000000000000000000000000000080000000000000040000000200000000000040000000000002000000000000000000000000000000000000000000000000000000000000000002000000000000000000000",
      "type": "0x2",
      "transactionHash": "0xb401cdfc371a5f4d4ce305bc0aacaf4170a5f98b7067c716d1c831ea0085305f",
      "transactionIndex": "0x0",
      "blockHash": "0x0169a2ed9cc5ccf62b106dc62a21cbfd243f43669497a596cfcef111b297c071",
      "blockNumber": "0x3",
      "gasUsed": "0xb69e",
      "effectiveGasPrice": "0x2dbdd9ff",
      "blobGasPrice": "0x1",
      "from": "0xf39fd6e51aad88f6f4ce6ab8827279cfffb92266",
      "to": "0x5fbdb2315678afecb367f032d93f642f64180aa3",
      "contractAddress": null
    },
    {
      "status": "0x1",
      "cumulativeGasUsed": "0xb6aa",
      "logs": [
        {
          "address": "0x5fbdb2315678afecb367f032d93f642f64180aa3",
          "topics": [
            "0xdf3d52f91c217cecdf0f0ca8f90fddeb94f26c26df4dc6d178b4e1e39b0aa134",
            "0x00000000000000000000000090f79bf6eb2c4f870365e785982e1f101e93b906",
            "0x9498a1d7ce43710ec2c6286af9e143b9e839f10b60ff4103e9499ae3cacc1488",
            "0x000000000000000000000000f39fd6e51aad88f6f4ce6ab8827279cfffb92266"
          ],
          "data": "0x000000000000000000000000000000000000000000000000000000006a418951",
          "blockHash": "0x52447b0ebfac9b5fb93b4af527aae70a3c094662d074aba61a545d82a28f0c34",
          "blockNumber": "0x4",
          "blockTimestamp": "0x6a418951",
          "transactionHash": "0xbc30ce4f32543d3eb51557f4e8846fef48d1a6e26b179c7a474f4040edd287a5",
          "transactionIndex": "0x0",
          "logIndex": "0x0",
          "removed": false
        }
      ],
      "logsBloom": "0x00000000000000000000000000000000000000000000000000000000000000000000000000000000000000000000000000000000000000000000000000000000000000000000000002000000000000000000000000000000000000000000000000000040000000000000000100004000000000000000000000000000000000000000000400000000000000000000000000000000000000000400000200000000000000000000000000000000000000000000000000000000000000080000000000000040000000200000000000000000400000002000000000000000000000000000000000000000002010000001000000000000000000000000000000000000",
      "type": "0x2",
      "transactionHash": "0xbc30ce4f32543d3eb51557f4e8846fef48d1a6e26b179c7a474f4040edd287a5",
      "transactionIndex": "0x0",
      "blockHash": "0x52447b0ebfac9b5fb93b4af527aae70a3c094662d074aba61a545d82a28f0c34",
      "blockNumber": "0x4",
      "gasUsed": "0xb6aa",
      "effectiveGasPrice": "0x280aae9d",
      "blobGasPrice": "0x1",
      "from": "0xf39fd6e51aad88f6f4ce6ab8827279cfffb92266",
      "to": "0x5fbdb2315678afecb367f032d93f642f64180aa3",
      "contractAddress": null
    },
    {
      "status": "0x1",
      "cumulativeGasUsed": "0x16d54",
      "logs": [
        {
          "address": "0x5fbdb2315678afecb367f032d93f642f64180aa3",
          "topics": [
            "0xdf3d52f91c217cecdf0f0ca8f90fddeb94f26c26df4dc6d178b4e1e39b0aa134",
            "0x00000000000000000000000015d34aaf54267db7d7c367839aaf71a00a2c6a65",
            "0x2a423060727a4831dc33916d06b48bcaaa0e914f0dcc984e7591a365b3e5bf12",
            "0x000000000000000000000000f39fd6e51aad88f6f4ce6ab8827279cfffb92266"
          ],
          "data": "0x000000000000000000000000000000000000000000000000000000006a418951",
          "blockHash": "0x52447b0ebfac9b5fb93b4af527aae70a3c094662d074aba61a545d82a28f0c34",
          "blockNumber": "0x4",
          "blockTimestamp": "0x6a418951",
          "transactionHash": "0x535888d0854c93400383df667471905acf58ec2a05680c9af1eabf3ce5183ca5",
          "transactionIndex": "0x1",
          "logIndex": "0x1",
          "removed": false
        }
      ],
      "logsBloom": "0x00000000040000000000000000000040000000000000000000000000000000000000000000000000000000000000000000000000000000000000000000000000000000000000000002000000000000000080000000000008000000000000000000000040000000000000000100000000000000000000000000000000000000000000000400000000000000000000000000000000000000000000000300000000000000000000000000000000000000000000000000000000000000080000000000000040000000200000000000000000000000002000000000000000000004000000000000000000000000000000000000000000000000000000000000000000",
      "type": "0x2",
      "transactionHash": "0x535888d0854c93400383df667471905acf58ec2a05680c9af1eabf3ce5183ca5",
      "transactionIndex": "0x1",
      "blockHash": "0x52447b0ebfac9b5fb93b4af527aae70a3c094662d074aba61a545d82a28f0c34",
      "blockNumber": "0x4",
      "gasUsed": "0xb6aa",
      "effectiveGasPrice": "0x280aae9d",
      "blobGasPrice": "0x1",
      "from": "0xf39fd6e51aad88f6f4ce6ab8827279cfffb92266",
      "to": "0x5fbdb2315678afecb367f032d93f642f64180aa3",
      "contractAddress": null
    },
    {
      "status": "0x1",
      "cumulativeGasUsed": "0x223fe",
      "logs": [
        {
          "address": "0x5fbdb2315678afecb367f032d93f642f64180aa3",
          "topics": [
            "0xdf3d52f91c217cecdf0f0ca8f90fddeb94f26c26df4dc6d178b4e1e39b0aa134",
            "0x0000000000000000000000009965507d1a55bcc2695c58ba16fb37d819b0a4dc",
            "0xf7b3690e888f56aab8207ebc26898505bade655f744808634be5e4523dc80816",
            "0x000000000000000000000000f39fd6e51aad88f6f4ce6ab8827279cfffb92266"
          ],
          "data": "0x000000000000000000000000000000000000000000000000000000006a418951",
          "blockHash": "0x52447b0ebfac9b5fb93b4af527aae70a3c094662d074aba61a545d82a28f0c34",
          "blockNumber": "0x4",
          "blockTimestamp": "0x6a418951",
          "transactionHash": "0xadb7257477ecb2b60faa8c61d73f31377786d7a5b42c63cb64a56a25f97e12bb",
          "transactionIndex": "0x2",
          "logIndex": "0x2",
          "removed": false
        }
      ],
      "logsBloom": "0x00000004000000000000000000000000000000000000000000000000000000000000400000000000000000000000000000000000000000000000000000000000000000000000000002000000000000000000000000008000000000000000000000000040000000000000000100000000000000000000000000000000008000000000000400000000000000000000000000000000000000000000000200000000000000000000000000000000000000000000000000000000000000080000000000000040800000200000000400000000000000002000000000000000000000000000000000000000000000000000000000000000000000000000000000000000",
      "type": "0x2",
      "transactionHash": "0xadb7257477ecb2b60faa8c61d73f31377786d7a5b42c63cb64a56a25f97e12bb",
      "transactionIndex": "0x2",
      "blockHash": "0x52447b0ebfac9b5fb93b4af527aae70a3c094662d074aba61a545d82a28f0c34",
      "blockNumber": "0x4",
      "gasUsed": "0xb6aa",
      "effectiveGasPrice": "0x280aae9d",
      "blobGasPrice": "0x1",
      "from": "0xf39fd6e51aad88f6f4ce6ab8827279cfffb92266",
      "to": "0x5fbdb2315678afecb367f032d93f642f64180aa3",
      "contractAddress": null
    }
  ],
  "libraries": [],
  "pending": [],
  "returns": {},
  "timestamp": 1782679889259,
  "chain": 31337,
  "commit": "16ab175"
}