{
  "transactions": [
    {
      "hash": "0xeeff3891bcb1b0a154498b601730de883feb8cb967ecd6e3e0887c2053e57d38",
      "transactionType": "CREATE",
      "contractName": "Profiles",
      "contractAddress": "0x5fbdb2315678afecb367f032d93f642f64180aa3",
      "function": null,
      "arguments": [
        "0x0000000000000000000000000000000000001234",
        "0xf39Fd6e51aad88F6F4ce6aB8827279cffFb92266"
      ],
      "transaction": {
        "from": "0xf39fd6e51aad88f6f4ce6ab8827279cfffb92266",
        "gas": "0x5f44e",
        "value": "0x0",
        "input": "0x60c060405234801561000f575f5ffd5b506040516105cb3803806105cb833981810160405281019061003191906100fe565b8173ffffffffffffffffffffffffffffffffffffffff1660808173ffffffffffffffffffffffffffffffffffffffff16815250508073ffffffffffffffffffffffffffffffffffffffff1660a08173ffffffffffffffffffffffffffffffffffffffff1681525050505061013c565b5f5ffd5b5f73ffffffffffffffffffffffffffffffffffffffff82169050919050565b5f6100cd826100a4565b9050919050565b6100dd816100c3565b81146100e7575f5ffd5b50565b5f815190506100f8816100d4565b92915050565b5f5f60408385031215610114576101136100a0565b5b5f610121858286016100ea565b9250506020610132858286016100ea565b9150509250929050565b60805160a05161046161016a5f395f818160ec01528181610110015261019f01525f61024701526104615ff3fe608060405234801561000f575f5ffd5b506004361061004a575f3560e01c80630656e6cb1461004e57806338013f021461007e578063636fb7d51461009c5780638823151b146100b8575b5f5ffd5b610068600480360381019061006391906102c7565b6100d6565b604051610075919061030a565b60405180910390f35b6100866100ea565b6040516100939190610332565b60405180910390f35b6100b660048036038101906100b19190610375565b61010e565b005b6100c0610245565b6040516100cd9190610332565b60405180910390f35b5f602052805f5260405f205f915090505481565b7f000000000000000000000000000000000000000000000000000000000000000081565b7f000000000000000000000000000000000000000000000000000000000000000073ffffffffffffffffffffffffffffffffffffffff163373ffffffffffffffffffffffffffffffffffffffff161461019c576040517f08c379a00000000000000000000000000000000000000000000000000000000081526004016101939061040d565b60405180910390fd5b427f000000000000000000000000000000000000000000000000000000000000000073ffffffffffffffffffffffffffffffffffffffff167f679553f8f928de21dca527f7da39b188ce5f40ec6494897dfd471b279f7bacc260405160405180910390a3805f5f8473ffffffffffffffffffffffffffffffffffffffff1673ffffffffffffffffffffffffffffffffffffffff1681526020019081526020015f20819055505050565b7f000000000000000000000000000000000000000000000000000000000000000081565b5f5ffd5b5f73ffffffffffffffffffffffffffffffffffffffff82169050919050565b5f6102968261026d565b9050919050565b6102a68161028c565b81146102b0575f5ffd5b50565b5f813590506102c18161029d565b92915050565b5f602082840312156102dc576102db610269565b5b5f6102e9848285016102b3565b91505092915050565b5f819050919050565b610304816102f2565b82525050565b5f60208201905061031d5f8301846102fb565b92915050565b61032c8161028c565b82525050565b5f6020820190506103455f830184610323565b92915050565b610354816102f2565b811461035e575f5ffd5b50565b5f8135905061036f8161034b565b92915050565b5f5f6040838503121561038b5761038a610269565b5b5f610398858286016102b3565b92505060206103a985828601610361565b9150509250929050565b5f82825260208201905092915050565b7f756e617574686f72697a656420636f6e74726163742063616c6c0000000000005f82015250565b5f6103f7601a836103b3565b9150610402826103c3565b602082019050919050565b5f6020820190508181035f830152610424816103eb565b905091905056fea2646970667358221220b75f9b0a28e055df2f5aadcc21efe07ec64673481a89c67cf6315428f490621d64736f6c634300081e00330000000000000000000000000000000000000000000000000000000000001234000000000000000000000000f39fd6e51aad88f6f4ce6ab8827279cfffb92266",
        "nonce": "0x0",
        "chainId": "0x7a69"
      },
      "additionalContracts": [],
      "isFixedGasLimit": false
    },
    {
      "hash": "0x7938b9c2aaf116571fb81817800297f8b0e41d8a2192c2a323b538cd76364653",
      "transactionType": "CALL",
      "contractName": "Profiles",
      "contractAddress": "0x5fbdb2315678afecb367f032d93f642f64180aa3",
      "function": "addProfile(address,bytes32)",
      "arguments": [
        "0x70997970C51812dc3A010C7d01b50e0d17dc79C8",
        "0x6cf174318a1edbf8248425cc7f8f4c5cc4ab14c90925520a744deef78953d603"
      ],
      "transaction": {
        "from": "0xf39fd6e51aad88f6f4ce6ab8827279cfffb92266",
        "to": "0x5fbdb2315678afecb367f032d93f642f64180aa3",
        "gas": "0xfa1f",
        "value": "0x0",
        "input": "0x636fb7d500000000000000000000000070997970c51812dc3a010c7d01b50e0d17dc79c86cf174318a1edbf8248425cc7f8f4c5cc4ab14c90925520a744deef78953d603",
        "nonce": "0x1",
        "chainId": "0x7a69"
      },
      "additionalContracts": [],
      "isFixedGasLimit": false
    },
    {
      "hash": "0x491ae40519590399f6299dc1a5db819f3d7898e540a5400102d26a12ea302104",
      "transactionType": "CALL",
      "contractName": "Profiles",
      "contractAddress": "0x5fbdb2315678afecb367f032d93f642f64180aa3",
      "function": "addProfile(address,bytes32)",
      "arguments": [
        "0x3C44CdDdB6a900fa2b585dd299e03d12FA4293BC",
        "0xb25a5a1c7caba59258dbea03242817ea904fd0af6229cb729f1385fcbf07d942"
      ],
      "transaction": {
        "from": "0xf39fd6e51aad88f6f4ce6ab8827279cfffb92266",
        "to": "0x5fbdb2315678afecb367f032d93f642f64180aa3",
        "gas": "0x108c4",
        "value": "0x0",
        "input": "0x636fb7d50000000000000000000000003c44cdddb6a900fa2b585dd299e03d12fa4293bcb25a5a1c7caba59258dbea03242817ea904fd0af6229cb729f1385fcbf07d942",
        "nonce": "0x2",
        "chainId": "0x7a69"
      },
      "additionalContracts": [],
      "isFixedGasLimit": false
    },
    {
      "hash": "0xdbc47e0b26dfb616f4da62f69fafd7078d3785c6add10c6c893d142afced8541",
      "transactionType": "CALL",
      "contractName": "Profiles",
      "contractAddress": "0x5fbdb2315678afecb367f032d93f642f64180aa3",
      "function": "addProfile(address,bytes32)",
      "arguments": [
        "0x90F79bf6EB2c4f870365E785982E1f101E93b906",
        "0x9498a1d7ce43710ec2c6286af9e143b9e839f10b60ff4103e9499ae3cacc1488"
      ],
      "transaction": {
        "from": "0xf39fd6e51aad88f6f4ce6ab8827279cfffb92266",
        "to": "0x5fbdb2315678afecb367f032d93f642f64180aa3",
        "gas": "0xfa1f",
        "value": "0x0",
        "input": "0x636fb7d500000000000000000000000090f79bf6eb2c4f870365e785982e1f101e93b9069498a1d7ce43710ec2c6286af9e143b9e839f10b60ff4103e9499ae3cacc1488",
        "nonce": "0x3",
        "chainId": "0x7a69"
      },
      "additionalContracts": [],
      "isFixedGasLimit": false
    },
    {
      "hash": "0xe271e258cd389936674c66ce261dd3fb0af95a15299847c0895ab6368ce49d81",
      "transactionType": "CALL",
      "contractName": "Profiles",
      "contractAddress": "0x5fbdb2315678afecb367f032d93f642f64180aa3",
      "function": "addProfile(address,bytes32)",
      "arguments": [
        "0x15d34AAf54267DB7D7c367839AAf71A00a2C6A65",
        "0x2a423060727a4831dc33916d06b48bcaaa0e914f0dcc984e7591a365b3e5bf12"
      ],
      "transaction": {
        "from": "0xf39fd6e51aad88f6f4ce6ab8827279cfffb92266",
        "to": "0x5fbdb2315678afecb367f032d93f642f64180aa3",
        "gas": "0xfa1f",
        "value": "0x0",
        "input": "0x636fb7d500000000000000000000000015d34aaf54267db7d7c367839aaf71a00a2c6a652a423060727a4831dc33916d06b48bcaaa0e914f0dcc984e7591a365b3e5bf12",
        "nonce": "0x4",
        "chainId": "0x7a69"
      },
      "additionalContracts": [],
      "isFixedGasLimit": false
    },
    {
      "hash": "0x2c1e2dee97b9def34d60c362c8e98926c1ded0259a1b4e0f686f29bd15c3ae77",
      "transactionType": "CALL",
      "contractName": "Profiles",
      "contractAddress": "0x5fbdb2315678afecb367f032d93f642f64180aa3",
      "function": "addProfile(address,bytes32)",
      "arguments": [
        "0x9965507D1a55bcC2695C58ba16FB37d819B0A4dc",
        "0xf7b3690e888f56aab8207ebc26898505bade655f744808634be5e4523dc80816"
      ],
      "transaction": {
        "from": "0xf39fd6e51aad88f6f4ce6ab8827279cfffb92266",
        "to": "0x5fbdb2315678afecb367f032d93f642f64180aa3",
        "gas": "0xfa1f",
        "value": "0x0",
        "input": "0x636fb7d50000000000000000000000009965507d1a55bcc2695c58ba16fb37d819b0a4dcf7b3690e888f56aab8207ebc26898505bade655f744808634be5e4523dc80816",
        "nonce": "0x5",
        "chainId": "0x7a69"
      },
      "additionalContracts": [],
      "isFixedGasLimit": false
    }
  ],
  "receipts": [
    {
      "status": "0x1",
      "cumulativeGasUsed": "0x4948b",
      "logs": [],
      "logsBloom": "0x00000000000000000000000000000000000000000000000000000000000000000000000000000000000000000000000000000000000000000000000000000000000000000000000000000000000000000000000000000000000000000000000000000000000000000000000000000000000000000000000000000000000000000000000000000000000000000000000000000000000000000000000000000000000000000000000000000000000000000000000000000000000000000000000000000000000000000000000000000000000000000000000000000000000000000000000000000000000000000000000000000000000000000000000000000000",
      "type": "0x2",
      "transactionHash": "0xeeff3891bcb1b0a154498b601730de883feb8cb967ecd6e3e0887c2053e57d38",
      "transactionIndex": "0x0",
      "blockHash": "0x123b60240a4c0f5cb61b05e072c09e5a7655018aad0522eb51230c498bd0e1ea",
      "blockNumber": "0x1",
      "gasUsed": "0x4948b",
      "effectiveGasPrice": "0x3b9aca01",
      "blobGasPrice": "0x1",
      "from": "0xf39fd6e51aad88f6f4ce6ab8827279cfffb92266",
      "to": null,
      "contractAddress": "0x5fbdb2315678afecb367f032d93f642f64180aa3"
    },
    {
      "status": "0x1",
      "cumulativeGasUsed": "0xb516",
      "logs": [
        {
          "address": "0x5fbdb2315678afecb367f032d93f642f64180aa3",
          "topics": [
            "0x679553f8f928de21dca527f7da39b188ce5f40ec6494897dfd471b279f7bacc2",
            "0x000000000000000000000000f39fd6e51aad88f6f4ce6ab8827279cfffb92266",
            "0x000000000000000000000000000000000000000000000000000000006a3e2ee0"
          ],
          "data": "0x",
          "blockHash": "0x679ce6ef95ecca09917a7fc5310c537fd4c8fb256411667ae3e6dc9403366074",
          "blockNumber": "0x2",
          "blockTimestamp": "0x6a3e2ee0",
          "transactionHash": "0x7938b9c2aaf116571fb81817800297f8b0e41d8a2192c2a323b538cd76364653",
          "transactionIndex": "0x0",
          "logIndex": "0x0",
          "removed": false
        }
      ],
      "logsBloom": "0x00000000000000000000000000000000000000000200000000000000000000000000000000000000000000000000000000000000000000000000000000000000040000000000000000000000000000000000000000000000000000000000000000000040000000000000000100000000000000000000000000000100000000000000000000000000000000000000000000000000000000000000000200000000000000000000000000000000000000000000000000000000000000040000000000000040000000200000000000000000800000002000000000000000000000000000000004000000000000000000000000000000000000000000000000000000",
      "type": "0x2",
      "transactionHash": "0x7938b9c2aaf116571fb81817800297f8b0e41d8a2192c2a323b538cd76364653",
      "transactionIndex": "0x0",
      "blockHash": "0x679ce6ef95ecca09917a7fc5310c537fd4c8fb256411667ae3e6dc9403366074",
      "blockNumber": "0x2",
      "gasUsed": "0xb516",
      "effectiveGasPrice": "0x344d9bf2",
      "blobGasPrice": "0x1",
      "from": "0xf39fd6e51aad88f6f4ce6ab8827279cfffb92266",
      "to": "0x5fbdb2315678afecb367f032d93f642f64180aa3",
      "contractAddress": null
    },
    {
      "status": "0x1",
      "cumulativeGasUsed": "0xb50a",
      "logs": [
        {
          "address": "0x5fbdb2315678afecb367f032d93f642f64180aa3",
          "topics": [
            "0x679553f8f928de21dca527f7da39b188ce5f40ec6494897dfd471b279f7bacc2",
            "0x000000000000000000000000f39fd6e51aad88f6f4ce6ab8827279cfffb92266",
            "0x000000000000000000000000000000000000000000000000000000006a3e2ee0"
          ],
          "data": "0x",
          "blockHash": "0xb901619ea69d6c11228d2892226d923277ba244bcc22ac25b5c3014877448f8c",
          "blockNumber": "0x3",
          "blockTimestamp": "0x6a3e2ee0",
          "transactionHash": "0x491ae40519590399f6299dc1a5db819f3d7898e540a5400102d26a12ea302104",
          "transactionIndex": "0x0",
          "logIndex": "0x0",
          "removed": false
        }
      ],
      "logsBloom": "0x00000000000000000000000000000000000000000200000000000000000000000000000000000000000000000000000000000000000000000000000000000000040000000000000000000000000000000000000000000000000000000000000000000040000000000000000100000000000000000000000000000100000000000000000000000000000000000000000000000000000000000000000200000000000000000000000000000000000000000000000000000000000000040000000000000040000000200000000000000000800000002000000000000000000000000000000004000000000000000000000000000000000000000000000000000000",
      "type": "0x2",
      "transactionHash": "0x491ae40519590399f6299dc1a5db819f3d7898e540a5400102d26a12ea302104",
      "transactionIndex": "0x0",
      "blockHash": "0xb901619ea69d6c11228d2892226d923277ba244bcc22ac25b5c3014877448f8c",
      "blockNumber": "0x3",
      "gasUsed": "0xb50a",
      "effectiveGasPrice": "0x2dc914a6",
      "blobGasPrice": "0x1",
      "from": "0xf39fd6e51aad88f6f4ce6ab8827279cfffb92266",
      "to": "0x5fbdb2315678afecb367f032d93f642f64180aa3",
      "contractAddress": null
    },
    {
      "status": "0x1",
      "cumulativeGasUsed": "0x16a20",
      "logs": [
        {
          "address": "0x5fbdb2315678afecb367f032d93f642f64180aa3",
          "topics": [
            "0x679553f8f928de21dca527f7da39b188ce5f40ec6494897dfd471b279f7bacc2",
            "0x000000000000000000000000f39fd6e51aad88f6f4ce6ab8827279cfffb92266",
            "0x000000000000000000000000000000000000000000000000000000006a3e2ee0"
          ],
          "data": "0x",
          "blockHash": "0xb901619ea69d6c11228d2892226d923277ba244bcc22ac25b5c3014877448f8c",
          "blockNumber": "0x3",
          "blockTimestamp": "0x6a3e2ee0",
          "transactionHash": "0xdbc47e0b26dfb616f4da62f69fafd7078d3785c6add10c6c893d142afced8541",
          "transactionIndex": "0x1",
          "logIndex": "0x1",
          "removed": false
        }
      ],
      "logsBloom": "0x00000000000000000000000000000000000000000200000000000000000000000000000000000000000000000000000000000000000000000000000000000000040000000000000000000000000000000000000000000000000000000000000000000040000000000000000100000000000000000000000000000100000000000000000000000000000000000000000000000000000000000000000200000000000000000000000000000000000000000000000000000000000000040000000000000040000000200000000000000000800000002000000000000000000000000000000004000000000000000000000000000000000000000000000000000000",
      "type": "0x2",
      "transactionHash": "0xdbc47e0b26dfb616f4da62f69fafd7078d3785c6add10c6c893d142afced8541",
      "transactionIndex": "0x1",
      "blockHash": "0xb901619ea69d6c11228d2892226d923277ba244bcc22ac25b5c3014877448f8c",
      "blockNumber": "0x3",
      "gasUsed": "0xb516",
      "effectiveGasPrice": "0x2dc914a6",
      "blobGasPrice": "0x1",
      "from": "0xf39fd6e51aad88f6f4ce6ab8827279cfffb92266",
      "to": "0x5fbdb2315678afecb367f032d93f642f64180aa3",
      "contractAddress": null
    },
    {
      "status": "0x1",
      "cumulativeGasUsed": "0xb516",
      "logs": [
        {
          "address": "0x5fbdb2315678afecb367f032d93f642f64180aa3",
          "topics": [
            "0x679553f8f928de21dca527f7da39b188ce5f40ec6494897dfd471b279f7bacc2",
            "0x000000000000000000000000f39fd6e51aad88f6f4ce6ab8827279cfffb92266",
            "0x000000000000000000000000000000000000000000000000000000006a3e2ee0"
          ],
          "data": "0x",
          "blockHash": "0xe1248594d1c441fc0b6efc17da22ce4405da43eb70fceb4840854a94087d2e52",
          "blockNumber": "0x4",
          "blockTimestamp": "0x6a3e2ee0",
          "transactionHash": "0xe271e258cd389936674c66ce261dd3fb0af95a15299847c0895ab6368ce49d81",
          "transactionIndex": "0x0",
          "logIndex": "0x0",
          "removed": false
        }
      ],
      "logsBloom": "0x00000000000000000000000000000000000000000200000000000000000000000000000000000000000000000000000000000000000000000000000000000000040000000000000000000000000000000000000000000000000000000000000000000040000000000000000100000000000000000000000000000100000000000000000000000000000000000000000000000000000000000000000200000000000000000000000000000000000000000000000000000000000000040000000000000040000000200000000000000000800000002000000000000000000000000000000004000000000000000000000000000000000000000000000000000000",
      "type": "0x2",
      "transactionHash": "0xe271e258cd389936674c66ce261dd3fb0af95a15299847c0895ab6368ce49d81",
      "transactionIndex": "0x0",
      "blockHash": "0xe1248594d1c441fc0b6efc17da22ce4405da43eb70fceb4840854a94087d2e52",
      "blockNumber": "0x4",
      "gasUsed": "0xb516",
      "effectiveGasPrice": "0x28190021",
      "blobGasPrice": "0x1",
      "from": "0xf39fd6e51aad88f6f4ce6ab8827279cfffb92266",
      "to": "0x5fbdb2315678afecb367f032d93f642f64180aa3",
      "contractAddress": null
    },
    {
      "status": "0x1",
      "cumulativeGasUsed": "0x16a2c",
      "logs": [
        {
          "address": "0x5fbdb2315678afecb367f032d93f642f64180aa3",
          "topics": [
            "0x679553f8f928de21dca527f7da39b188ce5f40ec6494897dfd471b279f7bacc2",
            "0x000000000000000000000000f39fd6e51aad88f6f4ce6ab8827279cfffb92266",
            "0x000000000000000000000000000000000000000000000000000000006a3e2ee0"
          ],
          "data": "0x",
          "blockHash": "0xe1248594d1c441fc0b6efc17da22ce4405da43eb70fceb4840854a94087d2e52",
          "blockNumber": "0x4",
          "blockTimestamp": "0x6a3e2ee0",
          "transactionHash": "0x2c1e2dee97b9def34d60c362c8e98926c1ded0259a1b4e0f686f29bd15c3ae77",
          "transactionIndex": "0x1",
          "logIndex": "0x1",
          "removed": false
        }
      ],
      "logsBloom": "0x00000000000000000000000000000000000000000200000000000000000000000000000000000000000000000000000000000000000000000000000000000000040000000000000000000000000000000000000000000000000000000000000000000040000000000000000100000000000000000000000000000100000000000000000000000000000000000000000000000000000000000000000200000000000000000000000000000000000000000000000000000000000000040000000000000040000000200000000000000000800000002000000000000000000000000000000004000000000000000000000000000000000000000000000000000000",
      "type": "0x2",
      "transactionHash": "0x2c1e2dee97b9def34d60c362c8e98926c1ded0259a1b4e0f686f29bd15c3ae77",
      "transactionIndex": "0x1",
      "blockHash": "0xe1248594d1c441fc0b6efc17da22ce4405da43eb70fceb4840854a94087d2e52",
      "blockNumber": "0x4",
      "gasUsed": "0xb516",
      "effectiveGasPrice": "0x28190021",
      "blobGasPrice": "0x1",
      "from": "0xf39fd6e51aad88f6f4ce6ab8827279cfffb92266",
      "to": "0x5fbdb2315678afecb367f032d93f642f64180aa3",
      "contractAddress": null
    }
  ],
  "libraries": [],
  "pending": [],
  "returns": {},
  "timestamp": 1782460128660,
  "chain": 31337,
  "commit": "f722cf6"
}